{
  "_format": "hh-sol-artifact-1",
  "contractName": "MyEpicNFT",
  "sourceName": "contracts/MyEpicNFT.sol",
  "abi": [
    {
      "inputs": [],
      "stateMutability": "nonpayable",
      "type": "constructor"
    },
    {
      "anonymous": false,
      "inputs": [
        {
          "indexed": true,
          "internalType": "address",
          "name": "owner",
          "type": "address"
        },
        {
          "indexed": true,
          "internalType": "address",
          "name": "approved",
          "type": "address"
        },
        {
          "indexed": true,
          "internalType": "uint256",
          "name": "tokenId",
          "type": "uint256"
        }
      ],
      "name": "Approval",
      "type": "event"
    },
    {
      "anonymous": false,
      "inputs": [
        {
          "indexed": true,
          "internalType": "address",
          "name": "owner",
          "type": "address"
        },
        {
          "indexed": true,
          "internalType": "address",
          "name": "operator",
          "type": "address"
        },
        {
          "indexed": false,
          "internalType": "bool",
          "name": "approved",
          "type": "bool"
        }
      ],
      "name": "ApprovalForAll",
      "type": "event"
    },
    {
      "anonymous": false,
      "inputs": [
        {
          "indexed": false,
          "internalType": "address",
          "name": "sender",
          "type": "address"
        },
        {
          "indexed": false,
          "internalType": "uint256",
          "name": "tokenId",
          "type": "uint256"
        }
      ],
      "name": "NewEpicNFTMinted",
      "type": "event"
    },
    {
      "anonymous": false,
      "inputs": [
        {
          "indexed": true,
          "internalType": "address",
          "name": "from",
          "type": "address"
        },
        {
          "indexed": true,
          "internalType": "address",
          "name": "to",
          "type": "address"
        },
        {
          "indexed": true,
          "internalType": "uint256",
          "name": "tokenId",
          "type": "uint256"
        }
      ],
      "name": "Transfer",
      "type": "event"
    },
    {
      "inputs": [
        {
          "internalType": "address",
          "name": "to",
          "type": "address"
        },
        {
          "internalType": "uint256",
          "name": "tokenId",
          "type": "uint256"
        }
      ],
      "name": "approve",
      "outputs": [],
      "stateMutability": "nonpayable",
      "type": "function"
    },
    {
      "inputs": [
        {
          "internalType": "address",
          "name": "owner",
          "type": "address"
        }
      ],
      "name": "balanceOf",
      "outputs": [
        {
          "internalType": "uint256",
          "name": "",
          "type": "uint256"
        }
      ],
      "stateMutability": "view",
      "type": "function"
    },
    {
      "inputs": [
        {
          "internalType": "uint256",
          "name": "tokenId",
          "type": "uint256"
        }
      ],
      "name": "getApproved",
      "outputs": [
        {
          "internalType": "address",
          "name": "",
          "type": "address"
        }
      ],
      "stateMutability": "view",
      "type": "function"
    },
    {
      "inputs": [],
      "name": "getTotalNumberOfNFTs",
      "outputs": [
        {
          "internalType": "uint256",
          "name": "",
          "type": "uint256"
        }
      ],
      "stateMutability": "view",
      "type": "function"
    },
    {
      "inputs": [
        {
          "internalType": "address",
          "name": "owner",
          "type": "address"
        },
        {
          "internalType": "address",
          "name": "operator",
          "type": "address"
        }
      ],
      "name": "isApprovedForAll",
      "outputs": [
        {
          "internalType": "bool",
          "name": "",
          "type": "bool"
        }
      ],
      "stateMutability": "view",
      "type": "function"
    },
    {
      "inputs": [],
      "name": "makeAnEpicNFT",
      "outputs": [],
      "stateMutability": "nonpayable",
      "type": "function"
    },
    {
      "inputs": [],
      "name": "name",
      "outputs": [
        {
          "internalType": "string",
          "name": "",
          "type": "string"
        }
      ],
      "stateMutability": "view",
      "type": "function"
    },
    {
      "inputs": [
        {
          "internalType": "uint256",
          "name": "tokenId",
          "type": "uint256"
        }
      ],
      "name": "ownerOf",
      "outputs": [
        {
          "internalType": "address",
          "name": "",
          "type": "address"
        }
      ],
      "stateMutability": "view",
      "type": "function"
    },
    {
      "inputs": [
        {
          "internalType": "uint256",
          "name": "tokenId",
          "type": "uint256"
        }
      ],
      "name": "pickRandomFirstWord",
      "outputs": [
        {
          "internalType": "string",
          "name": "",
          "type": "string"
        }
      ],
      "stateMutability": "view",
      "type": "function"
    },
    {
      "inputs": [
        {
          "internalType": "uint256",
          "name": "tokenId",
          "type": "uint256"
        }
      ],
      "name": "pickRandomSecondWord",
      "outputs": [
        {
          "internalType": "string",
          "name": "",
          "type": "string"
        }
      ],
      "stateMutability": "view",
      "type": "function"
    },
    {
      "inputs": [
        {
          "internalType": "uint256",
          "name": "tokenId",
          "type": "uint256"
        }
      ],
      "name": "pickRandomThirdWord",
      "outputs": [
        {
          "internalType": "string",
          "name": "",
          "type": "string"
        }
      ],
      "stateMutability": "view",
      "type": "function"
    },
    {
      "inputs": [
        {
          "internalType": "address",
          "name": "from",
          "type": "address"
        },
        {
          "internalType": "address",
          "name": "to",
          "type": "address"
        },
        {
          "internalType": "uint256",
          "name": "tokenId",
          "type": "uint256"
        }
      ],
      "name": "safeTransferFrom",
      "outputs": [],
      "stateMutability": "nonpayable",
      "type": "function"
    },
    {
      "inputs": [
        {
          "internalType": "address",
          "name": "from",
          "type": "address"
        },
        {
          "internalType": "address",
          "name": "to",
          "type": "address"
        },
        {
          "internalType": "uint256",
          "name": "tokenId",
          "type": "uint256"
        },
        {
          "internalType": "bytes",
          "name": "_data",
          "type": "bytes"
        }
      ],
      "name": "safeTransferFrom",
      "outputs": [],
      "stateMutability": "nonpayable",
      "type": "function"
    },
    {
      "inputs": [
        {
          "internalType": "address",
          "name": "operator",
          "type": "address"
        },
        {
          "internalType": "bool",
          "name": "approved",
          "type": "bool"
        }
      ],
      "name": "setApprovalForAll",
      "outputs": [],
      "stateMutability": "nonpayable",
      "type": "function"
    },
    {
      "inputs": [
        {
          "internalType": "bytes4",
          "name": "interfaceId",
          "type": "bytes4"
        }
      ],
      "name": "supportsInterface",
      "outputs": [
        {
          "internalType": "bool",
          "name": "",
          "type": "bool"
        }
      ],
      "stateMutability": "view",
      "type": "function"
    },
    {
      "inputs": [],
      "name": "symbol",
      "outputs": [
        {
          "internalType": "string",
          "name": "",
          "type": "string"
        }
      ],
      "stateMutability": "view",
      "type": "function"
    },
    {
      "inputs": [
        {
          "internalType": "uint256",
          "name": "tokenId",
          "type": "uint256"
        }
      ],
      "name": "tokenURI",
      "outputs": [
        {
          "internalType": "string",
          "name": "",
          "type": "string"
        }
      ],
      "stateMutability": "view",
      "type": "function"
    },
    {
      "inputs": [
        {
          "internalType": "address",
          "name": "from",
          "type": "address"
        },
        {
          "internalType": "address",
          "name": "to",
          "type": "address"
        },
        {
          "internalType": "uint256",
          "name": "tokenId",
          "type": "uint256"
        }
      ],
      "name": "transferFrom",
      "outputs": [],
      "stateMutability": "nonpayable",
      "type": "function"
    }
  ],
  "bytecode": "0x608060405260405180610160016040528061012f81526020016200497561012f9139600890805190602001906200003892919062000b38565b506040518060c001604052806040518060400160405280600181526020017f490000000000000000000000000000000000000000000000000000000000000081525081526020016040518060400160405280600381526020017f596f75000000000000000000000000000000000000000000000000000000000081525081526020016040518060400160405280600281526020017f486500000000000000000000000000000000000000000000000000000000000081525081526020016040518060400160405280600381526020017f536865000000000000000000000000000000000000000000000000000000000081525081526020016040518060400160405280600281526020017f576500000000000000000000000000000000000000000000000000000000000081525081526020016040518060400160405280600481526020017f54686579000000000000000000000000000000000000000000000000000000008152508152506009906006620001b692919062000bc9565b506040518061020001604052806040518060400160405280600781526020017f726573706f6e640000000000000000000000000000000000000000000000000081525081526020016040518060400160405280600581526020017f627265656400000000000000000000000000000000000000000000000000000081525081526020016040518060400160405280600581526020017f7265706c7900000000000000000000000000000000000000000000000000000081525081526020016040518060400160405280600781526020017f636f6e636564650000000000000000000000000000000000000000000000000081525081526020016040518060400160405280600981526020017f63656c656272617465000000000000000000000000000000000000000000000081525081526020016040518060400160405280600481526020017f6e6565640000000000000000000000000000000000000000000000000000000081525081526020016040518060400160405280600681526020017f7265706f7274000000000000000000000000000000000000000000000000000081525081526020016040518060400160405280600881526020017f63616d706169676e00000000000000000000000000000000000000000000000081525081526020016040518060400160405280600481526020017f66696c650000000000000000000000000000000000000000000000000000000081525081526020016040518060400160405280600981526020017f756e6465726d696e65000000000000000000000000000000000000000000000081525081526020016040518060400160405280600781526020017f636f6e736973740000000000000000000000000000000000000000000000000081525081526020016040518060400160405280600881526020017f636f6e66726f6e7400000000000000000000000000000000000000000000000081525081526020016040518060400160405280600681526020017f6e6f74696365000000000000000000000000000000000000000000000000000081525081526020016040518060400160405280600581526020017f70726f766500000000000000000000000000000000000000000000000000000081525081526020016040518060400160405280600581526020017f706c65616400000000000000000000000000000000000000000000000000000081525081526020016040518060400160405280600681526020017f61646a7573740000000000000000000000000000000000000000000000000000815250815250600a9060106200058392919062000c30565b506040518061020001604052806040518060400160405280600581526020017f756e636c6500000000000000000000000000000000000000000000000000000081525081526020016040518060400160405280600581526020017f627265616400000000000000000000000000000000000000000000000000000081525081526020016040518060400160405280600b81526020017f6e65676f74696174696f6e00000000000000000000000000000000000000000081525081526020016040518060400160405280600481526020017f6d6561740000000000000000000000000000000000000000000000000000000081525081526020016040518060400160405280600781526020017f636f756e7472790000000000000000000000000000000000000000000000000081525081526020016040518060400160405280600781526020017f636f756e7472790000000000000000000000000000000000000000000000000081525081526020016040518060400160405280600681526020017f6865616c7468000000000000000000000000000000000000000000000000000081525081526020016040518060400160405280600681526020017f7468616e6b73000000000000000000000000000000000000000000000000000081525081526020016040518060400160405280600b81526020017f696d70726f76656d656e7400000000000000000000000000000000000000000081525081526020016040518060400160405280600581526020017f70686f746f00000000000000000000000000000000000000000000000000000081525081526020016040518060400160405280600481526020017f646972740000000000000000000000000000000000000000000000000000000081525081526020016040518060400160405280600a81526020017f636f6e6e656374696f6e0000000000000000000000000000000000000000000081525081526020016040518060400160405280600981526020017f65717569706d656e74000000000000000000000000000000000000000000000081525081526020016040518060400160405280600881526020017f656d70686173697300000000000000000000000000000000000000000000000081525081526020016040518060400160405280600881526020017f636f6e747261637400000000000000000000000000000000000000000000000081525081526020016040518060400160405280600781526020017f68656172696e6700000000000000000000000000000000000000000000000000815250815250600b9060106200095092919062000c30565b503480156200095e57600080fd5b506040518060400160405280600981526020017f5371756172654e465400000000000000000000000000000000000000000000008152506040518060400160405280600681526020017f53515541524500000000000000000000000000000000000000000000000000008152508160009080519060200190620009e392919062000b38565b508060019080519060200190620009fc92919062000b38565b50505062000a4a6040518060400160405280601e81526020017f54686973206973206d79204e465420636f6e74726163742e20576f616821000081525062000a6c60201b620011541760201c565b600f600c60006101000a81548160ff021916908360ff16021790555062000e51565b62000b0c8160405160240162000a83919062000d65565b6040516020818303038152906040527f41304fac000000000000000000000000000000000000000000000000000000007bffffffffffffffffffffffffffffffffffffffffffffffffffffffff19166020820180517bffffffffffffffffffffffffffffffffffffffffffffffffffffffff838183161783525050505062000b0f60201b60201c565b50565b60008151905060006a636f6e736f6c652e6c6f679050602083016000808483855afa5050505050565b82805462000b469062000ddb565b90600052602060002090601f01602090048101928262000b6a576000855562000bb6565b82601f1062000b8557805160ff191683800117855562000bb6565b8280016001018555821562000bb6579182015b8281111562000bb557825182559160200191906001019062000b98565b5b50905062000bc5919062000c97565b5090565b82805482825590600052602060002090810192821562000c1d579160200282015b8281111562000c1c57825182908051906020019062000c0b92919062000b38565b509160200191906001019062000bea565b5b50905062000c2c919062000cb6565b5090565b82805482825590600052602060002090810192821562000c84579160200282015b8281111562000c8357825182908051906020019062000c7292919062000b38565b509160200191906001019062000c51565b5b50905062000c93919062000cb6565b5090565b5b8082111562000cb257600081600090555060010162000c98565b5090565b5b8082111562000cda576000818162000cd0919062000cde565b5060010162000cb7565b5090565b50805462000cec9062000ddb565b6000825580601f1062000d00575062000d21565b601f01602090049060005260206000209081019062000d20919062000c97565b5b50565b600062000d318262000d89565b62000d3d818562000d94565b935062000d4f81856020860162000da5565b62000d5a8162000e40565b840191505092915050565b6000602082019050818103600083015262000d81818462000d24565b905092915050565b600081519050919050565b600082825260208201905092915050565b60005b8381101562000dc557808201518184015260208101905062000da8565b8381111562000dd5576000848401525b50505050565b6000600282049050600182168062000df457607f821691505b6020821081141562000e0b5762000e0a62000e11565b5b50919050565b7f4e487b7100000000000000000000000000000000000000000000000000000000600052602260045260246000fd5b6000601f19601f8301169050919050565b613b148062000e616000396000f3fe608060405234801561001057600080fd5b50600436106101165760003560e01c806395d89b41116100a2578063c575757a11610071578063c575757a14610303578063c87b56dd14610333578063dd4e7d0114610363578063de9d132f14610381578063e985e9c51461038b57610116565b806395d89b411461027d578063a22cb4651461029b578063b187301f146102b7578063b88d4fde146102e757610116565b806323b872dd116100e957806323b872dd146101b55780632de38d68146101d157806342842e0e146102015780636352211e1461021d57806370a082311461024d57610116565b806301ffc9a71461011b57806306fdde031461014b578063081812fc14610169578063095ea7b314610199575b600080fd5b61013560048036038101906101309190612554565b6103bb565b6040516101429190612cba565b60405180910390f35b61015361049d565b6040516101609190612cd5565b60405180910390f35b610183600480360381019061017e91906125a6565b61052f565b6040516101909190612c2a565b60405180910390f35b6101b360048036038101906101ae9190612518565b6105b4565b005b6101cf60048036038101906101ca9190612412565b6106cc565b005b6101eb60048036038101906101e691906125a6565b61072c565b6040516101f89190612cd5565b60405180910390f35b61021b60048036038101906102169190612412565b61084a565b005b610237600480360381019061023291906125a6565b61086a565b6040516102449190612c2a565b60405180910390f35b610267600480360381019061026291906123ad565b61091c565b6040516102749190612f55565b60405180910390f35b6102856109d4565b6040516102929190612cd5565b60405180910390f35b6102b560048036038101906102b091906124dc565b610a66565b005b6102d160048036038101906102cc91906125a6565b610a7c565b6040516102de9190612cd5565b60405180910390f35b61030160048036038101906102fc9190612461565b610b9a565b005b61031d600480360381019061031891906125a6565b610bfc565b60405161032a9190612cd5565b60405180910390f35b61034d600480360381019061034891906125a6565b610d1a565b60405161035a9190612cd5565b60405180910390f35b61036b610e6c565b6040516103789190612f55565b60405180910390f35b610389610e7d565b005b6103a560048036038101906103a091906123d6565b6110c0565b6040516103b29190612cba565b60405180910390f35b60007f80ac58cd000000000000000000000000000000000000000000000000000000007bffffffffffffffffffffffffffffffffffffffffffffffffffffffff1916827bffffffffffffffffffffffffffffffffffffffffffffffffffffffff1916148061048657507f5b5e139f000000000000000000000000000000000000000000000000000000007bffffffffffffffffffffffffffffffffffffffffffffffffffffffff1916827bffffffffffffffffffffffffffffffffffffffffffffffffffffffff1916145b806104965750610495826111ed565b5b9050919050565b6060600080546104ac906131e9565b80601f01602080910402602001604051908101604052809291908181526020018280546104d8906131e9565b80156105255780601f106104fa57610100808354040283529160200191610525565b820191906000526020600020905b81548152906001019060200180831161050857829003601f168201915b5050505050905090565b600061053a82611257565b610579576040517f08c379a000000000000000000000000000000000000000000000000000000000815260040161057090612e95565b60405180910390fd5b6004600083815260200190815260200160002060009054906101000a900473ffffffffffffffffffffffffffffffffffffffff169050919050565b60006105bf8261086a565b90508073ffffffffffffffffffffffffffffffffffffffff168373ffffffffffffffffffffffffffffffffffffffff161415610630576040517f08c379a000000000000000000000000000000000000000000000000000000000815260040161062790612f15565b60405180910390fd5b8073ffffffffffffffffffffffffffffffffffffffff1661064f6112c3565b73ffffffffffffffffffffffffffffffffffffffff16148061067e575061067d816106786112c3565b6110c0565b5b6106bd576040517f08c379a00000000000000000000000000000000000000000000000000000000081526004016106b490612dd5565b60405180910390fd5b6106c783836112cb565b505050565b6106dd6106d76112c3565b82611384565b61071c576040517f08c379a000000000000000000000000000000000000000000000000000000000815260040161071390612f35565b60405180910390fd5b610727838383611462565b505050565b6060600061076061073c846116be565b60405160200161074c9190612b7f565b60405160208183030381529060405261186b565b9050600980549050816107739190613295565b9050600981815481106107af577f4e487b7100000000000000000000000000000000000000000000000000000000600052603260045260246000fd5b9060005260206000200180546107c4906131e9565b80601f01602080910402602001604051908101604052809291908181526020018280546107f0906131e9565b801561083d5780601f106108125761010080835404028352916020019161083d565b820191906000526020600020905b81548152906001019060200180831161082057829003601f168201915b5050505050915050919050565b61086583838360405180602001604052806000815250610b9a565b505050565b6000806002600084815260200190815260200160002060009054906101000a900473ffffffffffffffffffffffffffffffffffffffff169050600073ffffffffffffffffffffffffffffffffffffffff168173ffffffffffffffffffffffffffffffffffffffff161415610913576040517f08c379a000000000000000000000000000000000000000000000000000000000815260040161090a90612e15565b60405180910390fd5b80915050919050565b60008073ffffffffffffffffffffffffffffffffffffffff168273ffffffffffffffffffffffffffffffffffffffff16141561098d576040517f08c379a000000000000000000000000000000000000000000000000000000000815260040161098490612df5565b60405180910390fd5b600360008373ffffffffffffffffffffffffffffffffffffffff1673ffffffffffffffffffffffffffffffffffffffff168152602001908152602001600020549050919050565b6060600180546109e3906131e9565b80601f0160208091040260200160405190810160405280929190818152602001828054610a0f906131e9565b8015610a5c5780601f10610a3157610100808354040283529160200191610a5c565b820191906000526020600020905b815481529060010190602001808311610a3f57829003601f168201915b5050505050905090565b610a78610a716112c3565b838361189e565b5050565b60606000610ab0610a8c846116be565b604051602001610a9c9190612b5d565b60405160208183030381529060405261186b565b9050600a8054905081610ac39190613295565b9050600a8181548110610aff577f4e487b7100000000000000000000000000000000000000000000000000000000600052603260045260246000fd5b906000526020600020018054610b14906131e9565b80601f0160208091040260200160405190810160405280929190818152602001828054610b40906131e9565b8015610b8d5780601f10610b6257610100808354040283529160200191610b8d565b820191906000526020600020905b815481529060010190602001808311610b7057829003601f168201915b5050505050915050919050565b610bab610ba56112c3565b83611384565b610bea576040517f08c379a0000000000000000000000000000000000000000000000000000000008152600401610be190612f35565b60405180910390fd5b610bf684848484611a0b565b50505050565b60606000610c30610c0c846116be565b604051602001610c1c9190612be6565b60405160208183030381529060405261186b565b9050600b8054905081610c439190613295565b9050600b8181548110610c7f577f4e487b7100000000000000000000000000000000000000000000000000000000600052603260045260246000fd5b906000526020600020018054610c94906131e9565b80601f0160208091040260200160405190810160405280929190818152602001828054610cc0906131e9565b8015610d0d5780601f10610ce257610100808354040283529160200191610d0d565b820191906000526020600020905b815481529060010190602001808311610cf057829003601f168201915b5050505050915050919050565b6060610d2582611257565b610d64576040517f08c379a0000000000000000000000000000000000000000000000000000000008152600401610d5b90612e75565b60405180910390fd5b6000600660008481526020019081526020016000208054610d84906131e9565b80601f0160208091040260200160405190810160405280929190818152602001828054610db0906131e9565b8015610dfd5780601f10610dd257610100808354040283529160200191610dfd565b820191906000526020600020905b815481529060010190602001808311610de057829003601f168201915b505050505090506000610e0e611a67565b9050600081511415610e24578192505050610e67565b600082511115610e59578082604051602001610e41929190612ac3565b60405160208183030381529060405292505050610e67565b610e6284611a7e565b925050505b919050565b6000610e786007611b25565b905090565b600c60009054906101000a900460ff1660ff16610e98610e6c565b1115610ed9576040517f08c379a0000000000000000000000000000000000000000000000000000000008152600401610ed090612ef5565b60405180910390fd5b6000610ee56007611b25565b90506000610ef28261072c565b90506000610eff83610a7c565b90506000610f0c84610bfc565b90506000838383604051602001610f2593929190612ae7565b60405160208183030381529060405290506000600882604051602001610f4c929190612b2e565b60405160208183030381529060405290506000610f9183610f6c84611b33565b604051602001610f7d929190612ba1565b604051602081830303815290604052611b33565b9050600081604051602001610fa69190612c08565b6040516020818303038152906040529050610ff56040518060400160405280601581526020017f0a2d2d2d2d2d2d2d2d2d2d2d2d2d2d2d2d2d2d2d2d0000000000000000000000815250611154565b610ffe81611154565b61103c6040518060400160405280601581526020017f2d2d2d2d2d2d2d2d2d2d2d2d2d2d2d2d2d2d2d2d0a0000000000000000000000815250611154565b6110463389611cf1565b6110508882611d0f565b61105a6007611d83565b61107d604051806060016040528060258152602001613a7a602591398933611d99565b7febb98688741ffa4c7589bf325de30cf7becb63de567842e1ccdb6cb949fdc82c33896040516110ae929190612c91565b60405180910390a15050505050505050565b6000600560008473ffffffffffffffffffffffffffffffffffffffff1673ffffffffffffffffffffffffffffffffffffffff16815260200190815260200160002060008373ffffffffffffffffffffffffffffffffffffffff1673ffffffffffffffffffffffffffffffffffffffff16815260200190815260200160002060009054906101000a900460ff16905092915050565b6111ea816040516024016111689190612cd5565b6040516020818303038152906040527f41304fac000000000000000000000000000000000000000000000000000000007bffffffffffffffffffffffffffffffffffffffffffffffffffffffff19166020820180517bffffffffffffffffffffffffffffffffffffffffffffffffffffffff8381831617835250505050611e38565b50565b60007f01ffc9a7000000000000000000000000000000000000000000000000000000007bffffffffffffffffffffffffffffffffffffffffffffffffffffffff1916827bffffffffffffffffffffffffffffffffffffffffffffffffffffffff1916149050919050565b60008073ffffffffffffffffffffffffffffffffffffffff166002600084815260200190815260200160002060009054906101000a900473ffffffffffffffffffffffffffffffffffffffff1673ffffffffffffffffffffffffffffffffffffffff1614159050919050565b600033905090565b816004600083815260200190815260200160002060006101000a81548173ffffffffffffffffffffffffffffffffffffffff021916908373ffffffffffffffffffffffffffffffffffffffff160217905550808273ffffffffffffffffffffffffffffffffffffffff1661133e8361086a565b73ffffffffffffffffffffffffffffffffffffffff167f8c5be1e5ebec7d5bd14f71427d1e84f3dd0314c0f7b2291e5b200ac8c7c3b92560405160405180910390a45050565b600061138f82611257565b6113ce576040517f08c379a00000000000000000000000000000000000000000000000000000000081526004016113c590612db5565b60405180910390fd5b60006113d98361086a565b90508073ffffffffffffffffffffffffffffffffffffffff168473ffffffffffffffffffffffffffffffffffffffff16148061144857508373ffffffffffffffffffffffffffffffffffffffff166114308461052f565b73ffffffffffffffffffffffffffffffffffffffff16145b80611459575061145881856110c0565b5b91505092915050565b8273ffffffffffffffffffffffffffffffffffffffff166114828261086a565b73ffffffffffffffffffffffffffffffffffffffff16146114d8576040517f08c379a00000000000000000000000000000000000000000000000000000000081526004016114cf90612eb5565b60405180910390fd5b600073ffffffffffffffffffffffffffffffffffffffff168273ffffffffffffffffffffffffffffffffffffffff161415611548576040517f08c379a000000000000000000000000000000000000000000000000000000000815260040161153f90612d75565b60405180910390fd5b611553838383611e61565b61155e6000826112cb565b6001600360008573ffffffffffffffffffffffffffffffffffffffff1673ffffffffffffffffffffffffffffffffffffffff16815260200190815260200160002060008282546115ae91906130ff565b925050819055506001600360008473ffffffffffffffffffffffffffffffffffffffff1673ffffffffffffffffffffffffffffffffffffffff1681526020019081526020016000206000828254611605919061301e565b92505081905550816002600083815260200190815260200160002060006101000a81548173ffffffffffffffffffffffffffffffffffffffff021916908373ffffffffffffffffffffffffffffffffffffffff160217905550808273ffffffffffffffffffffffffffffffffffffffff168473ffffffffffffffffffffffffffffffffffffffff167fddf252ad1be2c89b69c2b068fc378daa952ba7f163c4a11628f55a4df523b3ef60405160405180910390a4505050565b60606000821415611706576040518060400160405280600181526020017f30000000000000000000000000000000000000000000000000000000000000008152509050611866565b600082905060005b600082146117385780806117219061324c565b915050600a826117319190613074565b915061170e565b60008167ffffffffffffffff81111561177a577f4e487b7100000000000000000000000000000000000000000000000000000000600052604160045260246000fd5b6040519080825280601f01601f1916602001820160405280156117ac5781602001600182028036833780820191505090505b5090505b6000851461185f576001826117c591906130ff565b9150600a856117d49190613295565b60306117e0919061301e565b60f81b81838151811061181c577f4e487b7100000000000000000000000000000000000000000000000000000000600052603260045260246000fd5b60200101907effffffffffffffffffffffffffffffffffffffffffffffffffffffffffffff1916908160001a905350600a856118589190613074565b94506117b0565b8093505050505b919050565b60008160405160200161187e9190612aac565b6040516020818303038152906040528051906020012060001c9050919050565b8173ffffffffffffffffffffffffffffffffffffffff168373ffffffffffffffffffffffffffffffffffffffff16141561190d576040517f08c379a000000000000000000000000000000000000000000000000000000000815260040161190490612d95565b60405180910390fd5b80600560008573ffffffffffffffffffffffffffffffffffffffff1673ffffffffffffffffffffffffffffffffffffffff16815260200190815260200160002060008473ffffffffffffffffffffffffffffffffffffffff1673ffffffffffffffffffffffffffffffffffffffff16815260200190815260200160002060006101000a81548160ff0219169083151502179055508173ffffffffffffffffffffffffffffffffffffffff168373ffffffffffffffffffffffffffffffffffffffff167f17307eab39ab6107e8899845ad3d59bd9653f200f220920489ca2b5937696c31836040516119fe9190612cba565b60405180910390a3505050565b611a16848484611462565b611a2284848484611e66565b611a61576040517f08c379a0000000000000000000000000000000000000000000000000000000008152600401611a5890612d35565b60405180910390fd5b50505050565b606060405180602001604052806000815250905090565b6060611a8982611257565b611ac8576040517f08c379a0000000000000000000000000000000000000000000000000000000008152600401611abf90612ed5565b60405180910390fd5b6000611ad2611a67565b90506000815111611af25760405180602001604052806000815250611b1d565b80611afc846116be565b604051602001611b0d929190612ac3565b6040516020818303038152906040525b915050919050565b600081600001549050919050565b60606000825190506000811415611b5c5760405180602001604052806000815250915050611cec565b60006003600283611b6d919061301e565b611b779190613074565b6004611b8391906130a5565b90506000602082611b94919061301e565b67ffffffffffffffff811115611bd3577f4e487b7100000000000000000000000000000000000000000000000000000000600052604160045260246000fd5b6040519080825280601f01601f191660200182016040528015611c055781602001600182028036833780820191505090505b5090506000604051806060016040528060408152602001613a9f604091399050600181016020830160005b86811015611ca95760038101905062ffffff818a015116603f8160121c168401518060081b905060ff603f83600c1c1686015116810190508060081b905060ff603f8360061c1686015116810190508060081b905060ff603f831686015116810190508060e01b90508084526004840193505050611c30565b506003860660018114611cc35760028114611cd357611cde565b613d3d60f01b6002830352611cde565b603d60f81b60018303525b508484525050819450505050505b919050565b611d0b828260405180602001604052806000815250611ffd565b5050565b611d1882611257565b611d57576040517f08c379a0000000000000000000000000000000000000000000000000000000008152600401611d4e90612e35565b60405180910390fd5b80600660008481526020019081526020016000209080519060200190611d7e929190612239565b505050565b6001816000016000828254019250508190555050565b611e33838383604051602401611db193929190612cf7565b6040516020818303038152906040527fe3849f79000000000000000000000000000000000000000000000000000000007bffffffffffffffffffffffffffffffffffffffffffffffffffffffff19166020820180517bffffffffffffffffffffffffffffffffffffffffffffffffffffffff8381831617835250505050611e38565b505050565b60008151905060006a636f6e736f6c652e6c6f679050602083016000808483855afa5050505050565b505050565b6000611e878473ffffffffffffffffffffffffffffffffffffffff16612058565b15611ff0578373ffffffffffffffffffffffffffffffffffffffff1663150b7a02611eb06112c3565b8786866040518563ffffffff1660e01b8152600401611ed29493929190612c45565b602060405180830381600087803b158015611eec57600080fd5b505af1925050508015611f1d57506040513d601f19601f82011682018060405250810190611f1a919061257d565b60015b611fa0573d8060008114611f4d576040519150601f19603f3d011682016040523d82523d6000602084013e611f52565b606091505b50600081511415611f98576040517f08c379a0000000000000000000000000000000000000000000000000000000008152600401611f8f90612d35565b60405180910390fd5b805181602001fd5b63150b7a0260e01b7bffffffffffffffffffffffffffffffffffffffffffffffffffffffff1916817bffffffffffffffffffffffffffffffffffffffffffffffffffffffff191614915050611ff5565b600190505b949350505050565b612007838361206b565b6120146000848484611e66565b612053576040517f08c379a000000000000000000000000000000000000000000000000000000000815260040161204a90612d35565b60405180910390fd5b505050565b600080823b905060008111915050919050565b600073ffffffffffffffffffffffffffffffffffffffff168273ffffffffffffffffffffffffffffffffffffffff1614156120db576040517f08c379a00000000000000000000000000000000000000000000000000000000081526004016120d290612e55565b60405180910390fd5b6120e481611257565b15612124576040517f08c379a000000000000000000000000000000000000000000000000000000000815260040161211b90612d55565b60405180910390fd5b61213060008383611e61565b6001600360008473ffffffffffffffffffffffffffffffffffffffff1673ffffffffffffffffffffffffffffffffffffffff1681526020019081526020016000206000828254612180919061301e565b92505081905550816002600083815260200190815260200160002060006101000a81548173ffffffffffffffffffffffffffffffffffffffff021916908373ffffffffffffffffffffffffffffffffffffffff160217905550808273ffffffffffffffffffffffffffffffffffffffff16600073ffffffffffffffffffffffffffffffffffffffff167fddf252ad1be2c89b69c2b068fc378daa952ba7f163c4a11628f55a4df523b3ef60405160405180910390a45050565b828054612245906131e9565b90600052602060002090601f01602090048101928261226757600085556122ae565b82601f1061228057805160ff19168380011785556122ae565b828001600101855582156122ae579182015b828111156122ad578251825591602001919060010190612292565b5b5090506122bb91906122bf565b5090565b5b808211156122d85760008160009055506001016122c0565b5090565b60006122ef6122ea84612f95565b612f70565b90508281526020810184848401111561230757600080fd5b6123128482856131a7565b509392505050565b60008135905061232981613a1d565b92915050565b60008135905061233e81613a34565b92915050565b60008135905061235381613a4b565b92915050565b60008151905061236881613a4b565b92915050565b600082601f83011261237f57600080fd5b813561238f8482602086016122dc565b91505092915050565b6000813590506123a781613a62565b92915050565b6000602082840312156123bf57600080fd5b60006123cd8482850161231a565b91505092915050565b600080604083850312156123e957600080fd5b60006123f78582860161231a565b92505060206124088582860161231a565b9150509250929050565b60008060006060848603121561242757600080fd5b60006124358682870161231a565b93505060206124468682870161231a565b925050604061245786828701612398565b9150509250925092565b6000806000806080858703121561247757600080fd5b60006124858782880161231a565b94505060206124968782880161231a565b93505060406124a787828801612398565b925050606085013567ffffffffffffffff8111156124c457600080fd5b6124d08782880161236e565b91505092959194509250565b600080604083850312156124ef57600080fd5b60006124fd8582860161231a565b925050602061250e8582860161232f565b9150509250929050565b6000806040838503121561252b57600080fd5b60006125398582860161231a565b925050602061254a85828601612398565b9150509250929050565b60006020828403121561256657600080fd5b600061257484828501612344565b91505092915050565b60006020828403121561258f57600080fd5b600061259d84828501612359565b91505092915050565b6000602082840312156125b857600080fd5b60006125c684828501612398565b91505092915050565b6125d881613133565b82525050565b6125e781613145565b82525050565b60006125f882612fdb565b6126028185612ff1565b93506126128185602086016131b6565b61261b81613382565b840191505092915050565b600061263182612fe6565b61263b8185613002565b935061264b8185602086016131b6565b61265481613382565b840191505092915050565b600061266a82612fe6565b6126748185613013565b93506126848185602086016131b6565b80840191505092915050565b6000815461269d816131e9565b6126a78186613013565b945060018216600081146126c257600181146126d357612706565b60ff19831686528186019350612706565b6126dc85612fc6565b60005b838110156126fe578154818901526001820191506020810190506126df565b838801955050505b50505092915050565b600061271c603283613002565b915061272782613393565b604082019050919050565b600061273f600c83613013565b915061274a826133e2565b600c82019050919050565b6000612762601c83613002565b915061276d8261340b565b602082019050919050565b6000612785602483613002565b915061279082613434565b604082019050919050565b60006127a8601983613002565b91506127b382613483565b602082019050919050565b60006127cb606383613013565b91506127d6826134ac565b606382019050919050565b60006127ee602c83613002565b91506127f982613547565b604082019050919050565b6000612811600b83613013565b915061281c82613596565b600b82019050919050565b6000612834600d83613013565b915061283f826135bf565b600d82019050919050565b6000612857600183613013565b9150612862826135e8565b600182019050919050565b600061287a603883613002565b915061288582613611565b604082019050919050565b600061289d602a83613002565b91506128a882613660565b604082019050919050565b60006128c0602983613002565b91506128cb826136af565b604082019050919050565b60006128e3602e83613002565b91506128ee826136fe565b604082019050919050565b6000612906600283613013565b91506129118261374d565b600282019050919050565b6000612929602083613002565b915061293482613776565b602082019050919050565b600061294c603183613002565b91506129578261379f565b604082019050919050565b600061296f602c83613002565b915061297a826137ee565b604082019050919050565b6000612992602983613002565b915061299d8261383d565b604082019050919050565b60006129b5602f83613002565b91506129c08261388c565b604082019050919050565b60006129d8600e83613002565b91506129e3826138db565b602082019050919050565b60006129fb600a83613013565b9150612a0682613904565b600a82019050919050565b6000612a1e602183613002565b9150612a298261392d565b604082019050919050565b6000612a41600b83613013565b9150612a4c8261397c565b600b82019050919050565b6000612a64601d83613013565b9150612a6f826139a5565b601d82019050919050565b6000612a87603183613002565b9150612a92826139ce565b604082019050919050565b612aa68161319d565b82525050565b6000612ab8828461265f565b915081905092915050565b6000612acf828561265f565b9150612adb828461265f565b91508190509392505050565b6000612af3828661265f565b9150612afe8261284a565b9150612b0a828561265f565b9150612b158261284a565b9150612b21828461265f565b9150819050949350505050565b6000612b3a8285612690565b9150612b46828461265f565b9150612b5182612827565b91508190509392505050565b6000612b6882612732565b9150612b74828461265f565b915081905092915050565b6000612b8a82612804565b9150612b96828461265f565b915081905092915050565b6000612bac826129ee565b9150612bb8828561265f565b9150612bc3826127be565b9150612bcf828461265f565b9150612bda826128f9565b91508190509392505050565b6000612bf182612a34565b9150612bfd828461265f565b915081905092915050565b6000612c1382612a57565b9150612c1f828461265f565b915081905092915050565b6000602082019050612c3f60008301846125cf565b92915050565b6000608082019050612c5a60008301876125cf565b612c6760208301866125cf565b612c746040830185612a9d565b8181036060830152612c8681846125ed565b905095945050505050565b6000604082019050612ca660008301856125cf565b612cb36020830184612a9d565b9392505050565b6000602082019050612ccf60008301846125de565b92915050565b60006020820190508181036000830152612cef8184612626565b905092915050565b60006060820190508181036000830152612d118186612626565b9050612d206020830185612a9d565b612d2d60408301846125cf565b949350505050565b60006020820190508181036000830152612d4e8161270f565b9050919050565b60006020820190508181036000830152612d6e81612755565b9050919050565b60006020820190508181036000830152612d8e81612778565b9050919050565b60006020820190508181036000830152612dae8161279b565b9050919050565b60006020820190508181036000830152612dce816127e1565b9050919050565b60006020820190508181036000830152612dee8161286d565b9050919050565b60006020820190508181036000830152612e0e81612890565b9050919050565b60006020820190508181036000830152612e2e816128b3565b9050919050565b60006020820190508181036000830152612e4e816128d6565b9050919050565b60006020820190508181036000830152612e6e8161291c565b9050919050565b60006020820190508181036000830152612e8e8161293f565b9050919050565b60006020820190508181036000830152612eae81612962565b9050919050565b60006020820190508181036000830152612ece81612985565b9050919050565b60006020820190508181036000830152612eee816129a8565b9050919050565b60006020820190508181036000830152612f0e816129cb565b9050919050565b60006020820190508181036000830152612f2e81612a11565b9050919050565b60006020820190508181036000830152612f4e81612a7a565b9050919050565b6000602082019050612f6a6000830184612a9d565b92915050565b6000612f7a612f8b565b9050612f86828261321b565b919050565b6000604051905090565b600067ffffffffffffffff821115612fb057612faf613353565b5b612fb982613382565b9050602081019050919050565b60008190508160005260206000209050919050565b600081519050919050565b600081519050919050565b600082825260208201905092915050565b600082825260208201905092915050565b600081905092915050565b60006130298261319d565b91506130348361319d565b9250827fffffffffffffffffffffffffffffffffffffffffffffffffffffffffffffffff03821115613069576130686132c6565b5b828201905092915050565b600061307f8261319d565b915061308a8361319d565b92508261309a576130996132f5565b5b828204905092915050565b60006130b08261319d565b91506130bb8361319d565b9250817fffffffffffffffffffffffffffffffffffffffffffffffffffffffffffffffff04831182151516156130f4576130f36132c6565b5b828202905092915050565b600061310a8261319d565b91506131158361319d565b925082821015613128576131276132c6565b5b828203905092915050565b600061313e8261317d565b9050919050565b60008115159050919050565b60007fffffffff0000000000000000000000000000000000000000000000000000000082169050919050565b600073ffffffffffffffffffffffffffffffffffffffff82169050919050565b6000819050919050565b82818337600083830152505050565b60005b838110156131d45780820151818401526020810190506131b9565b838111156131e3576000848401525b50505050565b6000600282049050600182168061320157607f821691505b6020821081141561321557613214613324565b5b50919050565b61322482613382565b810181811067ffffffffffffffff8211171561324357613242613353565b5b80604052505050565b60006132578261319d565b91507fffffffffffffffffffffffffffffffffffffffffffffffffffffffffffffffff82141561328a576132896132c6565b5b600182019050919050565b60006132a08261319d565b91506132ab8361319d565b9250826132bb576132ba6132f5565b5b828206905092915050565b7f4e487b7100000000000000000000000000000000000000000000000000000000600052601160045260246000fd5b7f4e487b7100000000000000000000000000000000000000000000000000000000600052601260045260246000fd5b7f4e487b7100000000000000000000000000000000000000000000000000000000600052602260045260246000fd5b7f4e487b7100000000000000000000000000000000000000000000000000000000600052604160045260246000fd5b6000601f19601f8301169050919050565b7f4552433732313a207472616e7366657220746f206e6f6e20455243373231526560008201527f63656976657220696d706c656d656e7465720000000000000000000000000000602082015250565b7f5345434f4e445f574f5244200000000000000000000000000000000000000000600082015250565b7f4552433732313a20746f6b656e20616c7265616479206d696e74656400000000600082015250565b7f4552433732313a207472616e7366657220746f20746865207a65726f2061646460008201527f7265737300000000000000000000000000000000000000000000000000000000602082015250565b7f4552433732313a20617070726f766520746f2063616c6c657200000000000000600082015250565b7f222c20226465736372697074696f6e223a20224120686967686c79206163636c60008201527f61696d656420636f6c6c656374696f6e206f6620737175617265732e222c202260208201527f696d616765223a2022646174613a696d6167652f7376672b786d6c3b6261736560408201527f36342c0000000000000000000000000000000000000000000000000000000000606082015250565b7f4552433732313a206f70657261746f7220717565727920666f72206e6f6e657860008201527f697374656e7420746f6b656e0000000000000000000000000000000000000000602082015250565b7f46495253545f574f524420000000000000000000000000000000000000000000600082015250565b7f3c2f746578743e3c2f7376673e00000000000000000000000000000000000000600082015250565b7f2000000000000000000000000000000000000000000000000000000000000000600082015250565b7f4552433732313a20617070726f76652063616c6c6572206973206e6f74206f7760008201527f6e6572206e6f7220617070726f76656420666f7220616c6c0000000000000000602082015250565b7f4552433732313a2062616c616e636520717565727920666f7220746865207a6560008201527f726f206164647265737300000000000000000000000000000000000000000000602082015250565b7f4552433732313a206f776e657220717565727920666f72206e6f6e657869737460008201527f656e7420746f6b656e0000000000000000000000000000000000000000000000602082015250565b7f45524337323155524953746f726167653a2055524920736574206f66206e6f6e60008201527f6578697374656e7420746f6b656e000000000000000000000000000000000000602082015250565b7f227d000000000000000000000000000000000000000000000000000000000000600082015250565b7f4552433732313a206d696e7420746f20746865207a65726f2061646472657373600082015250565b7f45524337323155524953746f726167653a2055524920717565727920666f722060008201527f6e6f6e6578697374656e7420746f6b656e000000000000000000000000000000602082015250565b7f4552433732313a20617070726f76656420717565727920666f72206e6f6e657860008201527f697374656e7420746f6b656e0000000000000000000000000000000000000000602082015250565b7f4552433732313a207472616e73666572206f6620746f6b656e2074686174206960008201527f73206e6f74206f776e0000000000000000000000000000000000000000000000602082015250565b7f4552433732314d657461646174613a2055524920717565727920666f72206e6f60008201527f6e6578697374656e7420746f6b656e0000000000000000000000000000000000602082015250565b7f4d6178204e4654206d696e746564000000000000000000000000000000000000600082015250565b7f7b226e616d65223a202200000000000000000000000000000000000000000000600082015250565b7f4552433732313a20617070726f76616c20746f2063757272656e74206f776e6560008201527f7200000000000000000000000000000000000000000000000000000000000000602082015250565b7f54484952445f574f524420000000000000000000000000000000000000000000600082015250565b7f646174613a6170706c69636174696f6e2f6a736f6e3b6261736536342c000000600082015250565b7f4552433732313a207472616e736665722063616c6c6572206973206e6f74206f60008201527f776e6572206e6f7220617070726f766564000000000000000000000000000000602082015250565b613a2681613133565b8114613a3157600080fd5b50565b613a3d81613145565b8114613a4857600080fd5b50565b613a5481613151565b8114613a5f57600080fd5b50565b613a6b8161319d565b8114613a7657600080fd5b5056fe416e204e465420772f20494420257320686173206265656e206d696e74656420746f2025734142434445464748494a4b4c4d4e4f505152535455565758595a6162636465666768696a6b6c6d6e6f707172737475767778797a303132333435363738392b2fa264697066735822122018145c2ade49dce69874d36d81b8627a13f1f610be02547ab62a1a70d00f75d564736f6c634300080400333c73766720786d6c6e733d27687474703a2f2f7777772e77332e6f72672f323030302f73766727207072657365727665417370656374526174696f3d27784d696e594d696e206d656574272076696577426f783d273020302033353020333530273e3c7374796c653e2e62617365207b2066696c6c3a2077686974653b20666f6e742d66616d696c793a2073657269663b20666f6e742d73697a653a20323470783b207d3c2f7374796c653e3c726563742077696474683d273130302527206865696768743d2731303025272066696c6c3d27626c61636b27202f3e3c7465787420783d273530252720793d273530252720636c6173733d27626173652720646f6d696e616e742d626173656c696e653d276d6964646c652720746578742d616e63686f723d276d6964646c65273e",
  "linkReferences": {},
  "deployedLinkReferences": {}
}